{
  "contractName": "OwnershipStorage",
  "abi": [
    {
      "inputs": [],
      "payable": false,
      "stateMutability": "nonpayable",
      "type": "constructor"
    },
    {
      "constant": true,
      "inputs": [],
      "name": "admin",
      "outputs": [
        {
          "name": "",
          "type": "address"
        }
      ],
      "payable": false,
      "stateMutability": "view",
      "type": "function"
    },
    {
      "constant": false,
      "inputs": [
        {
          "name": "newAdmin",
          "type": "address"
        }
      ],
      "name": "setNewAdmin",
      "outputs": [],
      "payable": false,
      "stateMutability": "nonpayable",
      "type": "function"
    }
  ],
  "bytecode": "0x608060405234801561001057600080fd5b50336000806101000a81548173ffffffffffffffffffffffffffffffffffffffff021916908373ffffffffffffffffffffffffffffffffffffffff1602179055506101f4806100606000396000f3fe608060405234801561001057600080fd5b50600436106100365760003560e01c80638eec99c81461003b578063f851a4401461007f575b600080fd5b61007d6004803603602081101561005157600080fd5b81019080803573ffffffffffffffffffffffffffffffffffffffff1690602001909291905050506100c9565b005b61008761019f565b604051808273ffffffffffffffffffffffffffffffffffffffff1673ffffffffffffffffffffffffffffffffffffffff16815260200191505060405180910390f35b6000809054906101000a900473ffffffffffffffffffffffffffffffffffffffff1673ffffffffffffffffffffffffffffffffffffffff163373ffffffffffffffffffffffffffffffffffffffff161461012257600080fd5b600073ffffffffffffffffffffffffffffffffffffffff168173ffffffffffffffffffffffffffffffffffffffff16141561015c57600080fd5b806000806101000a81548173ffffffffffffffffffffffffffffffffffffffff021916908373ffffffffffffffffffffffffffffffffffffffff16021790555050565b60008060009054906101000a900473ffffffffffffffffffffffffffffffffffffffff1690509056fea165627a7a7230582026aa78521f950d1071c9004e9fe95df3a14018368643a584d708dd9e9abe042f0029",
  "source": "pragma solidity ^0.5.0;\r\n\r\ncontract OwnershipStorage {\r\n    address internal _admin;\r\n\r\n    constructor () public {\r\n        _admin = msg.sender;\r\n    }\r\n\r\n    function admin() public view returns (address) {\r\n        return _admin;\r\n    }\r\n\r\n    function setNewAdmin(address newAdmin) public {\r\n        require(msg.sender == _admin);\r\n        require(newAdmin != address(0));\r\n        _admin = newAdmin;\r\n    }\r\n}",
  "sourcePath": "c:\\Users\\User\\Projects\\signal_capital_ico\\contracts\\abstract\\OwnershipStorage.sol",
  "compiler": {
    "name": "solc",
    "version": "0.5.8+commit.23d335f2.Emscripten.clang"
  },
  "schemaVersion": "3.0.11",
  "updatedAt": "2019-08-06T08:32:20.709Z",
  "devdoc": {
    "methods": {}
  },
  "userdoc": {
    "methods": {}
  }
}